S01D000061636173743035305F46696E616C50726F6A6563742E7372656346
S113000045C0000060C000005EC000005CC000008D
S11300105AC0000058C0000056C0000054C0000080
S113002052C0000050C000004EC000004CC0000090
S11300304AC00000C5C0000046C0000044C0000023
S113004042C0000040C000003EC000003CC00000B0
S11300503AC0000038C0000036C0000034C00000C0
S113006032C0000030C000002EC000002CC00000D0
S11300702AC0000028C0000026C0000024C00000E0
S113008022C0000020C000001EC0000011241FBEBA
S1130090CFEFD0E4DEBFCDBF11E0A0E0B1E0EAEAEB
S11300A0F3E000E00BBF02C007900D92A034B1074B
S11300B0D9F722E0A0E4B1E001C01D92A033B20759
S11300C0E1F741D170C19CCF181619065CF0089570
S11300D0000021503109E1F74F5F5F4F8417950706
S11300E019F4089540E050E027E033E0F1CF41985F
S11300F08BB9409A0000409882E090E0E5CF0895E3
S113010081E0F5CF0895813118F48158F0CF089536
S11301108155EDCF089584E690E0D6DF88E3E7DFEC
S113012086E0E5DF8FE0E3DF81E0E1DF8AE090E075
S1130130CBCF0895419A8BB9409A0000409881E052
S113014090E0C2CF08950F931F93CF93DF93182F9E
S1130150EB01D6DF8881882351F001E0010F812F64
S1130160D2DF8991E7DF102F88818111F6CFDF91EB
S1130170CF911F910F9108958BE0809381008DE7BB
S113018090E0909389008093880082E080936F00D0
S113019010928500109284008091000190910101D9
S11301A0A0910201B0910301809341019093420117
S11301B0A0934301B09344018FB780688FBF089523
S11301C01F920F920FB60F9211248F939F93AF93A8
S11301D0BF938091410190914201A0914301B0915C
S11301E044010197A109B10980934101909342010F
S11301F0A0934301B0934401892B8A2B8B2B99F450
S113020081E0809345018091000190910101A091CA
S11302100201B09103018093410190934201A093A4
S11302204301B0934401BF91AF919F918F910F907F
S11302300FBE0F901F9018956093000170930101F9
S113024080930201909303016093410170934201F2
S113025080934301909344010895EAE7F0E080819C
S1130260806E80830895EF92FF921F93CF93DF9364
S1130270A4E660E070E020E030E0E8E7F0E04081F0
S113028051814817590771F14081518184179507AD
S113029061F1408151812F5F3F4F283E1DEF3107AF
S11302A0B8F508C0408151812F5F3F4F283EBDEF14
S11302B03B0771F184179507A9F717C06F5F7F4F4C
S11302C040815181683ECDEF7C0711F18417950779
S11302D0A9F3E701CC0FDD1FC45ADE4F6983BF5F6A
S11302E0B0934001A15059F613C0B0914001EB2ED8
S11302F0F12CA701440F551F445A5E4FEA0128838D
S11303006F5F7F4F40815181683EDDEF7D07F0F2E2
S1130310DF91CF911F91FF90EF9008950F931F935A
S1130320CF930EE511E0C1E08C2FEDDEF801808162
S1130330805E00DFCF5F0E5F1F4FC132A9F7CF9100
S11303401F910F91089511B88FEF82B984B915B830
S11303509FE097B990EF98B98AB91BB87EDFDBDECE
S1130360CFDE81E0D0DE61E070E080E090E064DF29
S113037003DF609104017091050181E0E4DE0091E6
S1130380780010917900CADFC2E3D0E08091450182
S11303908823E1F31092450160E070E0C80163DF57
S10D03A02197A1F7F0CFF894FFCFE6
S11303AA010000000E01180122012C0136014368E4
S11303BA616E6E656C2031004368616E6E656C20F7
S11303CA32004368616E6E656C2033004368616E67
S11303DA6E656C2034004368616E6E656C2035006E
S9030000FC
