:1000000045C0000060C000005EC000005CC0000091
:100010005AC0000058C0000056C0000054C0000084
:1000200052C0000050C000004EC000004CC0000094
:100030004AC00000C5C0000046C0000044C0000027
:1000400042C0000040C000003EC000003CC00000B4
:100050003AC0000038C0000036C0000034C00000C4
:1000600032C0000030C000002EC000002CC00000D4
:100070002AC0000028C0000026C0000024C00000E4
:1000800022C0000020C000001EC0000011241FBEBE
:10009000CFEFD0E4DEBFCDBF15E0A0E0B1E0ECE7EC
:1000A000F9E000E00BBF02C007900D92A237B10744
:1000B000D9F728E0A2E7B5E001C01D92AD35B2073F
:1000C000E1F7F0D359C49CCF181619065CF00895D7
:1000D000000021503109E1F74F5F5F4F841795070A
:1000E00019F4089540E050E027E033E0F1CF419863
:1000F0008BB9409A0000409882E090E0E5CF0895E7
:1001000081E0F5CF0895813118F48158F0CF08953A
:100110008155EDCF089584E690E0D6DF88E3E7DFF0
:1001200086E0E5DF8FE0E3DF81E0E1DF8AE090E079
:10013000CBCF0895419A8BB9409A0000409881E056
:1001400090E0C2CF08950F931F93CF93DF93182FA2
:10015000EB01D6DF8881882351F001E0010F812F68
:10016000D2DF8991E7DF102F88818111F6CFDF91EF
:10017000CF911F910F9108958BE0809381008DE7BF
:1001800090E0909389008093880082E080936F00D4
:1001900010928500109284008091000190910101DD
:1001A000A0910201B09103018093740590937505AD
:1001B000A0937605B09377058FB780688FBF0895B9
:1001C0001F920F920FB60F9211248F939F93AF93AC
:1001D000BF938091740590917505A0917605B091BB
:1001E00077050197A109B10980937405909375056E
:1001F000A0937605B0937705892B8A2B8B2B99F4E6
:1002000081E0809378058091000190910101A09197
:100210000201B09103018093740590937505A0933A
:100220007605B0937705BF91AF919F918F910F9015
:100230000FBE0F901F9018956093000170930101FD
:100240008093020190930301609374057093750588
:1002500080937605909377050895EAE7F0E0808132
:10026000806E80830895049908C081E14CDF80E2AC
:1002700061DF81E048DF80E05DCF08952091780064
:10028000309179002817390781F120917800309159
:1002900079008217930781F140917800509179009D
:1002A00021E030E0E8E7F0E008C0408151812F5FB5
:1002B0003F4F283E6DEF3607A1F184179507A9F748
:1002C0001DC02F5F3F4F40815181283EBDEF3B074E
:1002D00041F184179507A9F3660F771FFB01E757D4
:1002E000F84F2183AF5FA093720780917207843625
:1002F000C0F010927207089520E030E0A0917207DC
:100300006A2F70E0FB01EE0FFF1FE757F84F2083C5
:10031000409178005091790021E030E0E8E7F0E08A
:10032000D8CF0895449A459A459827E030E0AC012B
:10033000022E02C0569547950A94E2F740FF02C08C
:10034000439A01C04398429A42982150310978F764
:10035000459A0895BC01449A459A88B1807C88B931
:1003600088B1807E88B927E030E0AB01022E02C060
:10037000569547950A94E2F740FF02C0439A03C09E
:1003800098B1907F98B9429A98B1987F98B92150C6
:10039000310958F7459A089587B18C6787B9469A0D
:1003A000429A85EA9EE00197F1F700C00000479A63
:1003B0008FE79EE30197F1F700C00000469A88B1ED
:1003C000806C88B981E290E0C5DF8EEB90E0C2DFFF
:1003D00086E090E0BFDF83E190E0BCDF80E290E068
:1003E000B9DF8CE090E0B6CF0895CF93C62F806838
:1003F00090E0B0DF8C2F806490E0ACDFCF91089567
:100400000F931F93CF93DF9308E010E008C080E0C4
:1004100090E088DF2197D9F70150110919F0CAE55A
:10042000D0E0F5CF60E080E0E0DFC9E7D5E001E7AC
:1004300017E0199280E090E075DFC017D107C9F787
:10044000DF91CF911F910F9108950F931F93CF9339
:10045000DF93C9E7D5E001E717E0899190E062DF1B
:10046000C017D107D1F7DF91CF911F910F91089558
:10047000DC01E9E7F5E021E737E08D918193E217B0
:10048000F307D9F70895262F277066956695669528
:10049000E82FF0E084E5689FE00DF11D1124413064
:1004A00069F4E758FA4F81E090E002C0880F991F85
:1004B0002A95E2F79081892B80830895E758FA4FB7
:1004C00081E090E002C0880F991F2A95E2F780959D
:1004D00090818923808308956F927F928F929F925B
:1004E000AF92BF92CF92DF92EF92FF920F931F9342
:1004F000CF93DF93992314F480E090E06C0184E5BE
:10050000C816D1042CF00F2EF3E5CF2ED12CF02DF0
:10051000842E952E992014F4812C912C84E5881634
:1005200091042CF00F2EF3E58F2E912CF02DA62E9A
:10053000B72EBB2014F4A12CB12C80E3A816B10473
:100540002CF00F2EFFE2AF2EB12CF02DC22FD32FA7
:10055000DD2314F4C0E0D0E0C033D10514F0CFE2C5
:10056000D0E0EE2061F08C189D08181419040CF0EE
:1005700049C0E12CF12C3E016A187B083DC0740192
:10058000EC18FD081E141F0494F41C2D612C712C12
:10059000402F6A2D812F77DF402F6C2F812F73DF43
:1005A0008FEF681A780A1F5F6E147F0489F7CA19E3
:1005B000DB0942F1E12CF12C402F6A2D8C2D63DFF9
:1005C000402F6A2D882D5FDF8FEFE81AF80AA39479
:1005D000CE15DF058CF716C0402F6D2D8C2D53DF07
:1005E0002196D3946C167D06BCF78FEFE81AF80AB3
:1005F000C394E814F90431F07720BCF3DA2CC0E09E
:10060000D0E0EACFDF91CF911F910F91FF90EF9053
:10061000DF90CF90BF90AF909F908F907F906F9022
:100620000895EF920F93209172072223B1F0E9E829
:10063000F7E04FEF420F50E0440F551F4557584F1A
:1006400060E070E0CB013081630F711D811D911D51
:100650003296E417F507B9F703C060E070E0CB010C
:1006600030E040E050E066D1DA01C9018E97A1097F
:10067000B1090B97A105B10508F068C064EF74E0FB
:1006800081E061DD81E13FDD80E054DD8091730533
:10069000811105C1479B1AC0479810927107B0DEBF
:1006A000D4DE6BEF74E081E04EDD81E12CDD80E093
:1006B00041DD2FE784E89EE1215080409040E1F742
:1006C00000C000001DDD10927305E9C0479A81E06B
:1006D000809371078091720581110EC08CEF92E0BA
:1006E000C7DEB3DE2FE181EA97E0215080409040E1
:1006F000E1F700C0000026C0813071F484E091E091
:10070000B7DEA3DE2FE181EA97E0215080409040E0
:10071000E1F700C0000016C073DEE12C01E028E222
:1007200030E04FE450E065E070E085E090E0D4DE3A
:100730008CDE2FE181EA97E0215080409040E1F784
:1007400000C0000081E080937305A9C0DA01C901EF
:100750008E549109A109B1090697A105B10508F0C8
:100760004BC080917107882309F499C063E075E05C
:1007700081E0E9DC1092730580917205823018F4F3
:100780008F5F809372058091720581110EC08CEF8E
:1007900092E06EDE5ADE2FE181EA97E02150804040
:1007A0009040E1F700C000007AC0813071F484E02D
:1007B00091E05EDE4ADE2FE181EA97E02150804041
:1007C0009040E1F700C000006AC01ADEE12C01E0B1
:1007D00028E230E04FE450E065E070E085E090E032
:1007E0007BDE33DE2FE181EA97E0215080409040AC
:1007F000E1F700C0000053C0DA01C9018C5591092E
:10080000A109B1098697A105B10508F048C08091FA
:100810007107882309F443C060E275E081E093DC4E
:100820001092730580917205882329F0815080937E
:10083000720581110EC08CEF92E01ADE06DE2FE108
:1008400081EA97E0215080409040E1F700C000002D
:1008500026C0813071F484E091E00ADEF6DD2FE1FC
:1008600081EA97E0215080409040E1F700C000000D
:1008700016C0C6DDE12C01E028E230E04FE450E094
:1008800065E070E085E090E027DEDFDD2FE181EAC2
:1008900097E0215080409040E1F700C000000F91A8
:1008A000EF90089511B88FEF82B984B915B887B960
:1008B00018B88AB91BB880E3D0DC2DDC21DC81E0DC
:1008C00022DC61E070E080E090E0B6DC55DC64DDC5
:1008D00000917800109179004798D0E0FF24F394BC
:1008E000D11115C080E403DC80E024DC8AE022DC46
:1008F0008AE020DC8AE01EDC80E01CDC81E11ADC7E
:100900008EE018DC80E016DC80E8F1DBDF2D8091E2
:1009100071078111A8DC85DEC4E680917805882303
:10092000E1F31092780560E070E0C801A7DCC150E7
:10093000A1F7D6CFA1E21A2EAA1BBB1BFD010DC049
:10094000AA1FBB1FEE1FFF1FA217B307E407F5077F
:1009500020F0A21BB30BE40BF50B661F771F881F5B
:10096000991F1A9469F760957095809590959B01F1
:0C097000AC01BD01CF010895F894FFCF49
:10097C00010000000000000000000000000000006A
:10098C00000000000000000000000000000000005B
:10099C00000000000000000000000000000000004B
:1009AC00000000000000000000000000000000003B
:1009BC00000000000000000000000000000000002B
:1009CC00000000000000000000000000000000001B
:1009DC0000000000000000000000000000001CFCF3
:1009EC00FCFCF00000000000E0FCFCFCFCE0000063
:1009FC00000000F0FCFCFC1C00000000FCFCFCFCFB
:100A0C003C3C3C3C3C7CFCF8F8E000000000000066
:100A1C0000000000000000000000000000000000CA
:100A2C0000000000000000000000000000000000BA
:100A3C00000000011FFFFFFEE000C0FEFF7F070764
:100A4C007FFFFEE000C0FEFFFF1F01000000000062
:100A5C00FFFFFFFF78787878787CFFFFFFE3E0807A
:100A6C00000000000000000000000000000000007A
:100A7C00000000000000000000000000000000006A
:100A8C00000000000000000000013FFFFFFCFFFF22
:100A9C000F000000000FFFFFFCFFFF3F03000000F2
:100AAC0000000000FFFFFFFFE0E0E0E0E0E0F0F816
:100ABC00FFFF7F1F0000000000000000000000008E
:100ACC00000000000000000000000000000000001A
:100ADC000000000000000000000000000000000109
:100AEC0001010100000000000000000101010100F3
:100AFC0000000000000000000101010101010101E2
:100B0C0001010101000000000000000000000000D5
:100B1C0000000000000000000000000000000000C9
:100B2C0000000000000000000000000000000000B9
:100B3C0000000000000000000000000000000000A9
:100B4C000000000000000000000000000000000099
:100B5C000000000000000000000000000000000089
:100B6C000000000000000000000000000000000079
:100B7C000000000000000000000000F8FCFFDFAFE8
:100B8C005580550055005500550055005500550031
:100B9C005580D580D5E0F5607570756075E0D580B1
:100BAC00D5005500550057075E3C70F0E080000002
:100BBC000000000000000000000000000000000029
:100BCC000000000000000000000000000000000316
:100BDC005FFFFFFFD7EED5E8D5A0D580D5C0F5E0F7
:100BEC00BDF8DFEE7F3B3F0F0F06060606060C0C2A
:100BFC003838F1C1C307073C3DF8F5C05500550026
:100C0C005503571E7CF0E0C00000000000000000FF
:100C1C0000000000000000000000000000000000C8
:100C2C000000000000000103C7FFFD7ADDFEFF7726
:100C3C007F3C7E3F3F3F7FFF808000000000000034
:100C4C0000060F8FC4E07D3F1F0000008080E1E7AD
:100C5C007F3E55005500550055005501570F5C78E7
:100C6C0070E0C00000000000000000000000000068
:100C7C0000000000000040E0F0BCDFEFF7FFFFFFDA
:100C8C00470301000000C0E0F0E0000107070ECCB4
:100C9C00CCFC7C3C1C0E0783C1E07030781C5C0FD4
:100CAC005703D5C0D5E0753035B8DDF8FDF8FDB883
:100CBC003530F5C0D503570F5FBCF0F000000000D5
:100CCC00000000000000000000001FFFFF7FFFFF7E
:100CDC00FFFFFFFFFFFEFCF8F0F0F0E1F1F078B859
:100CEC005E2E5781D1E8F4B8FCBE77A35580D5C0F1
:100CFC00F5783DBEFFE6F3F91D0D07070FF9F9F086
:100D0C00F0B8191FC6CEFBFB7FE8F5FEFFFFFFFF17
:100D1C0000000000000000000000000000000000C7
:100D2C00070F1F1F1F3B777F7F6F7F7F7F3F3F3BEF
:100D3C001D1C1D1E1F0E1F0F1F3F7DEEFFFEF7EA31
:100D4C007F7F7F3F1F1E7FE3C1E0F1731F1E9FFB60
:100D5C00F36070FCDDEFD7E3D7E1D5F8FDFFFFFFC3
:100D6C00FFFFFFFF506F7765722100476F6F646262
:100D7C00796500506F696E74656420546F77617289
:100D8C00647320224368616E6E656C20555022009E
:100D9C00506F696E74656420417761792020202042
:100DAC00224368616E6E656C20444F574E2200439F
:100DBC0068616E6E656C2031004368616E6E656CA7
:100DCC002032004368616E6E656C203300436861AD
:100DDC006E6E656C2034004368616E6E656C2035F8
:020DEC00000005
:00000001FF
