S01D000061636173743035305F46696E616C50726F6A6563742E7372656346
S113000045C0000060C000005EC000005CC000008D
S11300105AC0000058C0000056C0000054C0000080
S113002052C0000050C000004EC000004CC0000090
S11300304AC00000C5C0000046C0000044C0000023
S113004042C0000040C000003EC000003CC00000B0
S11300503AC0000038C0000036C0000034C00000C0
S113006032C0000030C000002EC000002CC00000D0
S11300702AC0000028C0000026C0000024C00000E0
S113008022C0000020C000001EC0000011241FBEBA
S1130090CFEFD0E4DEBFCDBF11E0A0E0B1E0E4E2F9
S11300A0F4E000E00BBF02C007900D92A634B10744
S11300B0D9F722E0A6E4B1E001C01D92A633B2074D
S11300C0E1F763D1ADC19CCF181619065CF0089511
S11300D0000021503109E1F74F5F5F4F8417950706
S11300E019F4089540E050E027E033E0F1CF41985F
S11300F08BB9409A0000409882E090E0E5CF0895E3
S113010081E0F5CF0895813118F48158F0CF089536
S11301108155EDCF089584E690E0D6DF88E3E7DFEC
S113012086E0E5DF8FE0E3DF81E0E1DF8AE090E075
S1130130CBCF0895419A8BB9409A0000409881E052
S113014090E0C2CF08950F931F93CF93DF93182F9E
S1130150EB01D6DF8881882351F001E0010F812F64
S1130160D2DF8991E7DF102F88818111F6CFDF91EB
S1130170CF911F910F9108958BE0809381008DE7BB
S113018090E0909389008093880082E080936F00D0
S113019010928500109284008091000190910101D9
S11301A0A0910201B091030180934601909347010D
S11301B0A0934801B09349018FB780688FBF089519
S11301C01F920F920FB60F9211248F939F93AF93A8
S11301D0BF938091460190914701A0914801B0914D
S11301E049010197A109B109809346019093470100
S11301F0A0934801B0934901892B8A2B8B2B99F446
S113020081E080934A018091000190910101A091C5
S11302100201B09103018093460190934701A0939A
S11302204801B0934901BF91AF919F918F910F9075
S11302300FBE0F901F9018956093000170930101F9
S113024080930201909303016093460170934701E8
S113025080934801909349010895EAE7F0E0808192
S1130260806E80830895209178003091790028175A
S1130270390781F120917800309179008217930732
S113028081F1409178005091790021E030E0E8E775
S1130290F0E008C0408151812F5F3F4F283E6DEF51
S11302A03607A1F184179507A9F71DC02F5F3F4FAB
S11302B040815181283EBDEF3B0741F184179507EA
S11302C0A9F3660F771FFB01EE59FE4F2183AF5F41
S11302D0A0934B0180914B018436C0F010924B01E6
S11302E0089520E030E0A0914B016A2F70E0FB01FB
S11302F0EE0FFF1FEE59FE4F20834091780050917E
S1130300790021E030E0E8E7F0E0D8CF08952091CB
S11303104B012223B1F0E2E6F1E04FEF420F50E04F
S1130320440F551F4C595E4F60E070E0CB013081A3
S1130330630F711D811D911D3296E417F507B9F7FE
S113034003C060E070E0CB0130E040E050E046D014
S1130350DA01C9018E97A109B1090B97A105B1056D
S113036028F464E071E081E0EECE0895DA01C90179
S11303708E549109A109B1090697A105B10520F48C
S11303806BE071E081E0DFCE089511B88FEF82B9A0
S113039084B915B89FE097B990EF98B98AB91BB89A
S11303A05CDFB9DEADDE81E0AEDE61E070E080E00E
S11303B090E042DFE1DE0091780010917900A7DF40
S11303C0C4E680914A018823E1F310924A0160E077
S11303D070E0C80148DFC150A1F7F1CFA1E21A2EA5
S11303E0AA1BBB1BFD010DC0AA1FBB1FEE1FFF1FD5
S11303F0A217B307E407F50720F0A21BB30BE40B25
S1130400F50B661F771F881F991F1A9469F760956B
S11304107095809590959B01AC01BD01CF01089525
S1070420F894FFCF7A
S113042401000000506F77657221004368616E6EAD
S1130434656C004368616E6E656C203100436861CD
S11304446E6E656C2032004368616E6E656C203399
S1130454004368616E6E656C2034004368616E6E9F
S1090464656C2035000068
S9030000FC
