S01D000061636173743035305F46696E616C50726F6A6563742E7372656346
S113000045C0000060C000005EC000005CC000008D
S11300105AC0000058C0000056C0000054C0000080
S113002052C0000050C000004EC000004CC0000090
S11300304AC00000C5C0000046C0000044C0000023
S113004042C0000040C000003EC000003CC00000B0
S11300503AC0000038C0000036C0000034C00000C0
S113006032C0000030C000002EC000002CC00000D0
S11300702AC0000028C0000026C0000024C00000E0
S113008022C0000020C000001EC0000011241FBEBA
S1130090CFEFD0E4DEBFCDBF11E0A0E0B1E0EEECE5
S11300A0F3E000E00BBF02C007900D92A034B1074B
S11300B0D9F722E0A0E4B1E001C01D92A031B2075B
S11300C0E1F741D182C19CCF181619065CF008955E
S11300D0000021503109E1F74F5F5F4F8417950706
S11300E019F4089540E050E027E033E0F1CF41985F
S11300F08BB9409A0000409882E090E0E5CF0895E3
S113010081E0F5CF0895813118F48158F0CF089536
S11301108155EDCF089584E690E0D6DF88E3E7DFEC
S113012086E0E5DF8FE0E3DF81E0E1DF8AE090E075
S1130130CBCF0895419A8BB9409A0000409881E052
S113014090E0C2CF08950F931F93CF93DF93182F9E
S1130150EB01D6DF8881882351F001E0010F812F64
S1130160D2DF8991E7DF102F88818111F6CFDF91EB
S1130170CF911F910F9108958BE0809381008DE7BB
S113018090E0909389008093880082E080936F00D0
S113019010928500109284008091000190910101D9
S11301A0A0910201B0910301809342019093430115
S11301B0A0934401B09345018FB780688FBF089521
S11301C01F920F920FB60F9211248F939F93AF93A8
S11301D0BF938091420190914301A0914401B09159
S11301E045010197A109B10980934201909343010C
S11301F0A0934401B0934501892B8A2B8B2B99F44E
S113020081E0809346018091000190910101A091C9
S11302100201B09103018093420190934301A093A2
S11302204401B0934501BF91AF919F918F910F907D
S11302300FBE0F901F9018956093000170930101F9
S113024080930201909303016093420170934301F0
S113025080934401909345010895EAE7F0E080819A
S1130260806E8083089580B18095887090910F028C
S11302709230B1F028F4992341F09130E9F019C09B
S1130280933091F09430C1F014C0882381F18091AF
S1130290410190E004975CF582E080930F0212C064
S11302A083E080930F020895811121C010920F0200
S11302B0089510920F020895923021F0C0F0953005
S11302C080F40895E0914101EF5FE0934101F0E093
S11302D0EE0FFF1FEC5FFE4F6081718181E033CF31
S11302E00895609104017091050181E02CCF089577
S11302F0009907C008950196883E2DEF920719F4DE
S1130300089580E090E00099F6CF40914001242FB9
S113031030E0F901EE0FFF1FE95BFE4F808380E0C0
S113032090E005C00196883E5DEF950759F0009B6B
S1130330F9CF220F331FF901E95BFE4F81834F5F31
S113034040934001089511B88FEF82B984B915B86C
S11303509FE097B990EF98B98AB91BB87EDFDBDECE
S1130360CFDE81E0D0DE68EC70E080E090E064DF16
S113037003DF609104017091050181E0E4DE809166
S113038078009091790010E0C8E7D0E06CDF8091AC
S113039046018823E1F3109246011F5FA9DF612F14
S11303A070E081E0D0DE8881998185B928B190FF21
S11303B002C0246001C02B7F28B988B191FF02C01C
S11103C0886001C0877F88B9E1CFF894FFCF31
S11303CE010000000E01180122012C0136014368C0
S11303DE616E6E656C2031004368616E6E656C20D3
S11303EE32004368616E6E656C2033004368616E43
S11303FE6E656C2034004368616E6E656C2035004A
S9030000FC
