S01D000061636173743035305F46696E616C50726F6A6563742E7372656346
S113000045C0000060C000005EC000005CC000008D
S11300105AC0000058C0000056C0000054C0000080
S113002052C0000050C000004EC000004CC0000090
S11300304AC00000C5C0000046C0000044C0000023
S113004042C0000040C000003EC000003CC00000B0
S11300503AC0000038C0000036C0000034C00000C0
S113006032C0000030C000002EC000002CC00000D0
S11300702AC0000028C0000026C0000024C00000E0
S113008022C0000020C000001EC0000011241FBEBA
S1130090CFEFD0E4DEBFCDBF11E0A0E0B1E0E8E4F3
S11300A0F4E000E00BBF02C007900D92A235B10747
S11300B0D9F722E0A2E5B1E001C01D92A234B20753
S11300C0E1F775D1BFC19CCF181619065CF00895ED
S11300D0000021503109E1F74F5F5F4F8417950706
S11300E019F4089540E050E027E033E0F1CF41985F
S11300F08BB9409A0000409882E090E0E5CF0895E3
S113010081E0F5CF0895813118F48158F0CF089536
S11301108155EDCF089584E690E0D6DF88E3E7DFEC
S113012086E0E5DF8FE0E3DF81E0E1DF8AE090E075
S1130130CBCF0895419A8BB9409A0000409881E052
S113014090E0C2CF08950F931F93CF93DF93182F9E
S1130150EB01D6DF8881882351F001E0010F812F64
S1130160D2DF8991E7DF102F88818111F6CFDF91EB
S1130170CF911F910F9108958BE0809381008DE7BB
S113018090E0909389008093880082E080936F00D0
S113019010928500109284008091000190910101D9
S11301A0A0910201B09103018093520190935301F5
S11301B0A0935401B09355018FB780688FBF089501
S11301C01F920F920FB60F9211248F939F93AF93A8
S11301D0BF938091520190915301A0915401B09129
S11301E055010197A109B1098093520190935301DC
S11301F0A0935401B0935501892B8A2B8B2B99F42E
S113020081E0809356018091000190910101A091B9
S11302100201B09103018093520190935301A09382
S11302205401B0935501BF91AF919F918F910F905D
S11302300FBE0F901F9018956093000170930101F9
S113024080930201909303016093520170935301D0
S113025080935401909355010895EAE7F0E080817A
S1130260806E80830895209178003091790028175A
S1130270390781F120917800309179008217930732
S113028081F1409178005091790021E030E0E8E775
S1130290F0E008C0408151812F5F3F4F283E6DEF51
S11302A03607A1F184179507A9F71DC02F5F3F4FAB
S11302B040815181283EBDEF3B0741F184179507EA
S11302C0A9F3660F771FFB01E259FE4F2183AF5F4D
S11302D0A0935701809157018436C0F010925701C2
S11302E0089520E030E0A09157016A2F70E0FB01EF
S11302F0EE0FFF1FE259FE4F20834091780050918A
S1130300790021E030E0E8E7F0E0D8CF0895CF921B
S1130310DF92EF92FF92209157012223B1F0EEE693
S1130320F1E04FEF420F50E0440F551F40595E4F2C
S113033060E070E0CB013081630F711D811D911D60
S11303403296E417F507B9F703C060E070E0CB011B
S113035030E040E050E054D0DA01C9018E97A109A1
S1130360B1090B97A105B10528F464E071E081E0BF
S1130370EADE18C0DA01C9018E549109A109B10954
S11303800697A105B10528F46BE071E081E0DBDE9E
S113039009C02C3531054105510520F063E171E0B8
S11303A081E0D1DEFF90EF90DF90CF90089511B8F7
S11303B08FEF82B984B915B89FE097B990EF98B9D7
S11303C08AB91BB84ADFA7DE9BDE81E09CDE61E0D0
S11303D070E080E090E030DFCFDE00917800109193
S11303E0790095DFC4E6809156018823E1F31092E9
S11303F0560160E070E0C80136DFC150A1F7F1CFCB
S1130400A1E21A2EAA1BBB1BFD010DC0AA1FBB1F14
S1130410EE1FFF1FA217B307E407F50720F0A21B86
S1130420B30BE40BF50B661F771F881F991F1A94F3
S113043069F760957095809590959B01AC01BD011D
S10B0440CF010895F894FFCFE9
S113044801000000506F77657221004368616E6E89
S1130458656C00506F696E7465642041776179003A
S11304684368616E6E656C2031004368616E6E6529
S11304786C2032004368616E6E656C2033004368FB
S1130488616E6E656C2034004368616E6E656C2025
S1050498350029
S9030000FC
