:1000000045C0000060C000005EC000005CC0000091
:100010005AC0000058C0000056C0000054C0000084
:1000200052C0000050C000004EC000004CC0000094
:100030004AC00000C5C0000046C0000044C0000027
:1000400042C0000040C000003EC000003CC00000B4
:100050003AC0000038C0000036C0000034C00000C4
:1000600032C0000030C000002EC000002CC00000D4
:100070002AC0000028C0000026C0000024C00000E4
:1000800022C0000020C000001EC0000011241FBEBE
:10009000CFEFD0E4DEBFCDBF11E0A0E0B1E0ECEFE8
:1000A000F2E000E00BBF02C007900D92A034B10750
:1000B000D9F721E0A0E4B1E001C01D92A734B20756
:1000C000E1F7F5D019C19CCF181619065CF0089518
:1000D000000021503109E1F74F5F5F4F841795070A
:1000E00019F4089540E050E027E033E0F1CF109894
:1000F0008BB9119A0000119882E090E0E5CF089545
:1001000081E0F5CF0895813118F48158F0CF08953A
:100110008155EDCF089584E690E0D6DF88E3E7DFF0
:1001200086E0E5DF8FE0E3DF81E0E1DF8AE090E079
:10013000CBCF0895109A8BB9119A0000119881E0E5
:1001400090E0C2CF08950F931F93CF93DF93182FA2
:10015000EB01D6DF8881882351F001E0010F812F68
:10016000D2DF8991E7DF102F88818111F6CFDF91EF
:10017000CF911F910F9108958BE0809381008DE7BF
:1001800090E0909389008093880082E080936F00D4
:1001900010928500109284008091000190910101DD
:1001A000A0910201B091030180934101909342011B
:1001B000A0934301B09344018FB780688FBF089527
:1001C0001F920F920FB60F9211248F939F93AF93AC
:1001D000BF938091410190914201A0914301B09160
:1001E00044010197A109B109809341019093420113
:1001F000A0934301B0934401892B8A2B8B2B99F454
:1002000081E0809345018091000190910101A091CE
:100210000201B09103018093410190934201A093A8
:100220004301B0934401BF91AF919F918F910F9083
:100230000FBE0F901F9018956093000170930101FD
:1002400080930201909303016093410170934201F6
:1002500080934301909344010895EAE7F0E08081A0
:10026000806E8083089586B1809146018823F1F0E5
:10027000833018F01092460108958230B8F0823031
:1002800079F4E0914001EF5FE0934001F0E0EE0F80
:10029000FF1FEC5FFE4F6081718181E054CF0895B4
:1002A000609104017091050181E04DCF089511B86E
:1002B0008FEF82B984B915B817B888B98AB91BB855
:1002C000CCDF29DF1DDF81E01EDF61E070E080E030
:1002D00090E0B2DF51DF609104017091050181E08F
:1002E00032DF8091780090917900C8E7D0E0BBDFE1
:0C02F0008881998185B9FBCFF894FFCF7D
:1002FC00010000000E01180122012C013601436897
:10030C00616E6E656C2031004368616E6E656C20A9
:10031C0032004368616E6E656C2033004368616E19
:10032C006E656C2034004368616E6E656C20350020
:00000001FF
