S01D000061636173743035305F46696E616C50726F6A6563742E7372656346
S113000045C0000060C000005EC000005CC000008D
S11300105AC0000058C0000056C0000054C0000080
S113002052C0000050C000004EC000004CC0000090
S11300304AC00000C5C0000046C0000044C0000023
S113004042C0000040C000003EC000003CC00000B0
S11300503AC0000038C0000036C0000034C00000C0
S113006032C0000030C000002EC000002CC00000D0
S11300702AC0000028C0000026C0000024C00000E0
S113008022C0000020C000001EC0000011241FBEBA
S1130090CFEFD0E4DEBFCDBF11E0A0E0B1E0E2E4F9
S11300A0F4E000E00BBF02C007900D92AA37B1073D
S11300B0D9F722E0AAE7B1E001C01D92AA36B2073F
S11300C0E1F772D1BCC19CCF181619065CF00895F3
S11300D0000021503109E1F74F5F5F4F8417950706
S11300E019F4089540E050E027E033E0F1CF41985F
S11300F08BB9409A0000409882E090E0E5CF0895E3
S113010081E0F5CF0895813118F48158F0CF089536
S11301108155EDCF089584E690E0D6DF88E3E7DFEC
S113012086E0E5DF8FE0E3DF81E0E1DF8AE090E075
S1130130CBCF0895419A8BB9409A0000409881E052
S113014090E0C2CF08950F931F93CF93DF93182F9E
S1130150EB01D6DF8881882351F001E0010F812F64
S1130160D2DF8991E7DF102F88818111F6CFDF91EB
S1130170CF911F910F9108958BE0809381008DE7BB
S113018090E0909389008093880082E080936F00D0
S113019010928500109284008091000190910101D9
S11301A0A0910201B091030180937A0190937B01A5
S11301B0A0937C01B0937D018FB780688FBF0895B1
S11301C01F920F920FB60F9211248F939F93AF93A8
S11301D0BF9380917A0190917B01A0917C01B091B1
S11301E07D010197A109B10980937A0190937B0164
S11301F0A0937C01B0937D01892B8A2B8B2B99F4DE
S113020081E080937E018091000190910101A09191
S11302100201B091030180937A0190937B01A09332
S11302207C01B0937D01BF91AF919F918F910F900D
S11302300FBE0F901F9018956093000170930101F9
S1130240809302019093030160937A0170937B0180
S113025080937C0190937D010895EAE7F0E080812A
S1130260806E80830895209178003091790028175A
S1130270390781F120917800309179008217930732
S113028081F1409178005091790021E030E0E8E775
S1130290F0E008C0408151812F5F3F4F283E6DEF51
S11302A03607A1F184179507A9F71DC02F5F3F4FAB
S11302B040815181283EBDEF3B0741F184179507EA
S11302C0A9F3660F771FFB01EA56FE4F2183AF5F48
S11302D0A0937F0180917F018436C0F010927F014A
S11302E0089520E030E0A0917F016A2F70E0FB01C7
S11302F0EE0FFF1FEA56FE4F208340917800509185
S1130300790021E030E0E8E7F0E0D8CF08952091CB
S11303107F012223B1F0E6E9F1E04FEF420F50E014
S1130320440F551F48565E4F60E070E0CB013081AA
S1130330630F711D811D911D3296E417F507B9F7FE
S113034003C060E070E0CB0130E040E050E055D005
S1130350DA01C9018E97A109B1090B97A105B1056D
S113036028F464E071E081E0EECE0895DA01C90179
S11303708E549109A109B1090697A105B10528F484
S11303806BE071E081E0DFCE0895DA01C9018C559C
S11303909109A109B1098697A105B10520F468E284
S11303A071E081E0D0CE089511B88FEF82B984B99D
S11303B015B89FE097B990EF98B98AB91BB84DDF8B
S11303C0AADE9EDE81E09FDE61E070E080E090E0E6
S11303D033DFD2DE009178001091790098DFC4E613
S11303E080917E018823E1F310927E0160E070E049
S11303F0C80139DFC150A1F7F1CFA1E21A2EAA1B1F
S1130400BB1BFD010DC0AA1FBB1FEE1FFF1FA217C0
S1130410B307E407F50720F0A21BB30BE40BF50BBD
S1130420661F771F881F991F1A9469F76095709546
S1130430809590959B01AC01BD01CF010895F8947E
S1050440FFCFE8
S113044201000000506F7765722100506F696E746D
S1130452656420546F776172647320224368616E0D
S11304626E656C2055502200506F696E746564206D
S11304724177617920202020224368616E6E656C89
S113048220444F574E22004368616E6E656C2031E2
S1130492004368616E6E656C2032004368616E6E63
S11304A2656C2033004368616E6E656C20340043D2
S10D04B268616E6E656C2035000071
S9030000FC
