:1000000045C0000060C000005EC000005CC0000091
:100010005AC0000058C0000056C0000054C0000084
:1000200052C0000050C000004EC000004CC0000094
:100030004AC00000C5C0000046C0000044C0000027
:1000400042C0000040C000003EC000003CC00000B4
:100050003AC0000038C0000036C0000034C00000C4
:1000600032C0000030C000002EC000002CC00000D4
:100070002AC0000028C0000026C0000024C00000E4
:1000800022C0000020C000001EC0000011241FBEBE
:10009000CFEFD0E4DEBFCDBF13E0A0E0B1E0E8EFEA
:1000A000F5E000E00BBF02C007900D92A237B10748
:1000B000D9F726E0A2E7B3E001C01D92AD35B20743
:1000C000E1F72ED297C29CCF181619065CF008955E
:1000D000000021503109E1F74F5F5F4F841795070A
:1000E00019F4089540E050E027E033E0F1CF419863
:1000F0008BB9409A0000409882E090E0E5CF0895E7
:1001000081E0F5CF0895813118F48158F0CF08953A
:100110008155EDCF089584E690E0D6DF88E3E7DFF0
:1001200086E0E5DF8FE0E3DF81E0E1DF8AE090E079
:10013000CBCF0895419A8BB9409A0000409881E056
:1001400090E0C2CF08950F931F93CF93DF93182FA2
:10015000EB01D6DF8881882351F001E0010F812F68
:10016000D2DF8991E7DF102F88818111F6CFDF91EF
:10017000CF911F910F9108958BE0809381008DE7BF
:1001800090E0909389008093880082E080936F00D4
:1001900010928500109284008091000190910101DD
:1001A000A0910201B09103018093740390937503B1
:1001B000A0937603B09377038FB780688FBF0895BD
:1001C0001F920F920FB60F9211248F939F93AF93AC
:1001D000BF938091740390917503A0917603B091C1
:1001E00077030197A109B109809374039093750374
:1001F000A0937603B0937703892B8A2B8B2B99F4EA
:1002000081E0809378038091000190910101A09199
:100210000201B09103018093740390937503A0933E
:100220007603B0937703BF91AF919F918F910F9019
:100230000FBE0F901F9018956093000170930101FD
:10024000809302019093030160937403709375038C
:1002500080937603909377030895EAE7F0E0808136
:10026000806E80830895049908C081E14CDF80E2AC
:1002700061DF81E048DF80E05DCF08952091780064
:10028000309179002817390781F120917800309159
:1002900079008217930781F140917800509179009D
:1002A00021E030E0E8E7F0E008C0408151812F5FB5
:1002B0003F4F283E6DEF3607A1F184179507A9F748
:1002C0001DC02F5F3F4F40815181283EBDEF3B074E
:1002D00041F184179507A9F3660F771FFB01E757D4
:1002E000FA4F2183AF5FA093720580917205843627
:1002F000C0F010927205089520E030E0A0917205E0
:100300006A2F70E0FB01EE0FFF1FE757FA4F2083C3
:10031000409178005091790021E030E0E8E7F0E08A
:10032000D8CF0895449A459A459827E030E0AC012B
:10033000022E02C0569547950A94E2F740FF02C08C
:10034000439A01C04398429A42982150310978F764
:10035000459A0895BC01449A459A88B1807C88B931
:1003600088B1807E88B927E030E0AB01022E02C060
:10037000569547950A94E2F740FF02C0439A03C09E
:1003800098B1907F98B9429A98B1987F98B92150C6
:10039000310958F7459A089587B18C6787B9469A0D
:1003A000429A85EA9EE00197F1F700C00000479A63
:1003B0008FE79EE30197F1F700C00000469A88B1ED
:1003C000806C88B981E290E0C5DF8EEB90E0C2DFFF
:1003D00086E090E0BFDF83E190E0BCDF80E290E068
:1003E000B9DF8CE090E0B6CF08950F931F93CF93C1
:1003F000DF93C9E7D3E001E715E0899190E092DF50
:10040000C017D107D1F7DF91CF911F910F910895B8
:10041000DC01E9E7F3E021E735E08D918193E21714
:10042000F307D9F70895209172052223B1F0E9E886
:10043000F5E04FEF420F50E0440F551F45575A4F1C
:1004400060E070E0CB013081630F711D811D911D53
:100450003296E417F507B9F703C060E070E0CB010E
:1004600030E040E050E0A4D0DA01C9018E97A10944
:10047000B1090B97A105B10528F5039B23C06CEFCB
:1004800072E081E060DE81E13EDE80E053DE81E00B
:10049000809371058091730381110EC0479B08C042
:1004A00047981092720384E091E0B2DF9EDF04C0AF
:1004B000479A81E080937203809173038F5F8093EA
:1004C00073030895DA01C9018E549109A109B10994
:1004D0000697A105B10568F4809172038823F9F0AD
:1004E00063E073E081E02FDE1092710510927303D8
:1004F0000895DA01C9018C559109A109B1098697BE
:10050000A105B10560F480917203882341F060E297
:1005100073E081E018DE1092710510927303089564
:1005200011B88FEF82B984B915B887B918B88AB9EC
:100530001BB880E392DEEFDDE3DD81E0E4DD61E026
:1005400070E080E090E078DE17DE26DF0091780032
:10055000109179004798D0E0FF24F394D11115C091
:1005600080E4C5DD80E0E6DD8AE0E4DD8AE0E2DD0E
:100570008AE0E0DD80E0DEDD81E1DCDD8EE0DADDF9
:1005800080E0D8DD80E8B3DDDF2D80917105811139
:100590006ADE49DFC4E6809178038823E1F3109294
:1005A000780360E070E0C80169DEC150A1F7D6CFE2
:1005B000A1E21A2EAA1BBB1BFD010DC0AA1FBB1F67
:1005C000EE1FFF1FA217B307E407F50720F0A21BD9
:1005D000B30BE40BF50B661F771F881F991F1A9446
:1005E00069F760957095809590959B01AC01BD0170
:0805F000CF010895F894FFCF3C
:1005F80001000000000000000000000000000000F2
:10060800000000F8FCFFDFAF55805500550055008D
:1006180055005500550055005580D580D5E0F5604A
:100628007570756075E0D580D50055005500570781
:100638005E3C70F0E0800000000000000000000058
:1006480000000000000000000000000000000000A2
:1006580000000000000000035FFFFFFFD7EED5E8B1
:10066800D5A0D580D5C0F5E0BDF8DFEE7F3B3F0FC4
:100678000F06060606060C0C3838F1C1C307073CFE
:100688003DF8F5C0550055005503571E7CF0E0C0F5
:100698000000000000000000000000000000000052
:1006A800000000000000000000000000000001033E
:1006B800C7FFFD7ADDFEFF777F3C7E3F3F3F7FFF30
:1006C800808000000000000000060F8FC4E07D3F1E
:1006D8001F0000008080E1E77F3E5500550055006F
:1006E80055005501570F5C7870E0C000000000000D
:1006F800000000000000000000000000000040E0D2
:10070800F0BCDFEFF7FFFFFF470301000000C0E088
:10071800F0E0000107070ECCCCFC7C3C1C0E0783E4
:10072800C1E07030781C5C0F5703D5C0D5E0753038
:1007380035B8DDF8FDF8FDB83530F5C0D503570FED
:100748005FBCF0F0000000000000000000000000A6
:1007580000001FFFFF7FFFFFFFFFFFFFFFFEFCF80A
:10076800F0F0F0E1F1F078B85E2E5781D1E8F4B8F6
:10077800FCBE77A35580D5C0F5783DBEFFE6F3F9FA
:100788001D0D07070FF9F9F0F0B8191FC6CEFBFBCE
:100798007FE8F5FEFFFFFFFF0000000000000000FB
:1007A8000000000000000000070F1F1F1F3B777F9D
:1007B8007F6F7F7F7F3F3F3B1D1C1D1E1F0E1F0F3E
:1007C8001F3F7DEEFFFEF7EA7F7F7F3F1F1E7FE31F
:1007D800C1E0F1731F1E9FFBF36070FCDDEFD7E3F0
:1007E800D7E1D5F8FDFFFFFFFFFFFFFF506F7765EB
:1007F800722100506F696E74656420546F7761725E
:10080800647320224368616E6E656C205550220027
:10081800506F696E746564204177617920202020CB
:10082800224368616E6E656C20444F574E22004328
:1008380068616E6E656C2031004368616E6E656C30
:100848002032004368616E6E656C20330043686136
:100858006E6E656C2034004368616E6E656C203581
:0208680000008E
:00000001FF
